:1000000071C000008CC000008AC0000088C00000E1
:1000100086C0000084C0000082C0000080C00000D4
:100020007EC000007CC000007AC0000078C00000E4
:1000300076C0000074C0000072C0000070C00000F4
:100040006EC0000063C200006AC0000068C000000B
:1000500066C0000064C0000062C0000060C0000014
:100060005EC000005CC000005AC0000058C0000024
:1000700056C0000054C0000052C0000050C0000034
:100080004EC000004CC000004AC0000048C0000044
:1000900046C0000044C0000042C0000040C0000054
:1000A0003EC000003CC000003AC0000038C0000064
:1000B00036C0000034C0000032C0000030C0000074
:1000C0002EC000002CC000002AC0000028C0000084
:1000D00026C0000024C0000022C0000020C0000094
:1000E0001EC0000011241FBECFEFD1E2DEBFCDBF86
:1000F00012E0A0E0B2E0E2E1FFE000E00BBF02C0EE
:1001000007900D92A431B107D9F728E0A4E1B2E03D
:1001100001C01D92A937B207E1F75FD6F8C670CFCC
:10012000FC010396928381834FEF5FEFBA01438313
:100130005483658376839087878392878187108233
:100140000895FC01138612860895CF93DF939C01D6
:10015000FB01DC011196CD91DC911297D583C4830C
:100160008E819F81978386838E819F81DC01159686
:100170007C936E9314977F836E8333872287F90174
:1001800080818F5F8083DF91CF910895EF92FF92FE
:100190000F931F93CF93DF937C01FB01408151812B
:1001A000628173814F3F8FEF58076807780721F40A
:1001B000E701A985BA8512C0D701139614968D91CF
:1001C0009C911597EC01088119812A813B81401788
:1001D00051076207730710F0DC01F0CF14968D9180
:1001E0009C91159795838483EC01FF83EE83B783FD
:1001F000A6831596FC93EE931497F386E286F70197
:1002000080818F5F8083DF91CF911F910F91FF904D
:10021000EF900895CF93DF93FC01A285B38584818D
:10022000958126813781EC013F832E83C681D7815A
:100230009D838C8311968D919C911297E817F907F5
:1002400021F41296DC93CE931197138612868C912B
:1002500081508C938C91DF91CF91089531E1FC0115
:100260003083319722E220833197A3E3A083319733
:1002700060833197708331971082319760E8608393
:1002800031971082319762E06083319763E0608339
:10029000319764E06083319765E06083319766E071
:1002A0006083319767E06083319768E060833197BE
:1002B00069E06083319760E16083319730833197E3
:1002C00032E13083319733E13083319734E1308349
:1002D000319735E13083319736E13083319737E11B
:1002E0003083319738E13083319739E1308331976A
:1002F00030E23083319731E2308331972083319778
:1003000023E220833197408331975083319726E24F
:100310002083319727E22083319728E22083319789
:1003200029E22083319720E32083319721E3208342
:1003300086970895109289008CE7809388008BE05F
:1003400080938100EFE6F0E0808182608083A0915D
:100350007108B0917208CD91CDBFDD91DEBFFF91E4
:10036000EF91DF91CF91BF91AF919F918F917F914D
:100370006F915F914F913F912F911F910F91FF903E
:10038000EF90DF90CF90BF90AF909F908F907F9035
:100390006F905F904F903F902F901F900F900FBEE7
:1003A0000F90089581E008950F920FB6F8940F9280
:1003B0001F9211242F923F924F925F926F927F92E1
:1003C0008F929F92AF92BF92CF92DF92EF92FF9265
:1003D0000F931F932F933F934F935F936F937F934D
:1003E0008F939F93AF93BF93CF93DF93EF93FF933D
:1003F000A0917108B09172080DB60D920EB60D92D3
:1004000059D4A0917108B0917208CD91CDBFDD9102
:10041000DEBFFF91EF91DF91CF91BF91AF919F919F
:100420008F917F916F915F914F913F912F911F918C
:100430000F91FF90EF90DF90CF90BF90AF909F9083
:100440008F907F906F905F904F903F902F901F9074
:100450000F900FBE0F9008950F920FB6F8940F9261
:100460001F9211242F923F924F925F926F927F9230
:100470008F929F92AF92BF92CF92DF92EF92FF92B4
:100480000F931F932F933F934F935F936F937F939C
:100490008F939F93AF93BF93CF93DF93EF93FF938C
:1004A000A0917108B09172080DB60D920EB60D9222
:1004B00093D28111FFD3A0917108B0917208CD91B0
:1004C000CDBFDD91DEBFFF91EF91DF91CF91BF9165
:1004D000AF919F918F917F916F915F914F913F91DC
:1004E0002F911F910F91FF90EF90DF90CF90BF90D1
:1004F000AF909F908F907F906F905F904F903F90C4
:100500002F901F900F900FBE0F900895A5DF1895A4
:10051000CF93DF93EC015AD280911402909115028F
:10052000892B31F489E192E09093150280931402B3
:100530002091160230911702C9018C0F9D1F8B3D2F
:1005400045E0940770F42817390758F4C091140255
:10055000D0911502C20FD31F9093170280931602F9
:1005600002C0C0E0D0E00ED3CE01DF91CF9108955C
:100570000895E0912D08F0912E088081811104C02A
:100580008FEF9FEFDC010EC0E0912D08F0912E0857
:100590000780F085E02D0084F185E02D8281938134
:1005A000A481B5818093F7079093F807A093F9078A
:1005B000B093FA0708958F929F92AF92BF92CF9215
:1005C000DF92EF92FF92CF936B017C01C42F80905A
:1005D000040890900508A0900608B0900708809144
:1005E000710890917208029615DE8FEFC816D80632
:1005F000E806F806A1F4CC2391F06091710870919F
:1006000072086E5F7F4F89E098E0CF91FF90EF9086
:10061000DF90CF90BF90AF909F908F9096CDC80CF9
:10062000D91CEA1CFB1CE0917108F0917208C2828F
:10063000D382E482F5826091710870917208C814C7
:10064000D904EA04FB0480F480912B0890912C08D3
:100650006E5F7F4FCF91FF90EF90DF90CF90BF9074
:10066000AF909F908F9092CD80912D0890912E0801
:100670006E5F7F4F8BDD8091F7079091F807A09117
:10068000F907B091FA07C816D906EA06FB0640F446
:10069000C092F707D092F807E092F907F092FA07B4
:1006A000CF91FF90EF90DF90CF90BF90AF909F9051
:1006B0008F900895809114088823E1F30FB6F89481
:1006C0000F92E0911C08F0911D08C085D185CE01E4
:1006D0000296A0DD809108088150809308088091DF
:1006E00014088150809314080F900FBE8B8D9C8D41
:1006F0003FDFCE013DDFDECF4F925F926F927F9260
:100700008F929F92AF92BF92CF92DF92EF92FF9221
:100710000F93CF93DF934C016B015A012901CA015A
:10072000F7DE3C01892B09F4CBC08AE290E0F0DED1
:10073000EC01009789F07C8E6B8E21E0A21AB10843
:10074000A60CB71CC114D104C1F0BC01635E7F4F7D
:10075000F601C601089606C0C3010ADFB1C0E8175A
:10076000F90749F09F014191DB014D93BD01D9018A
:100770002C912111F4CF1CA201C01D8E043008F071
:1007800003E00A8F6E01B2E0CB0ED11CC601D9DCAA
:10079000CE010E96D6DCDB87CA8784E090E0A0E02D
:1007A000B0E0801B9109A109B1098E879F87A88BB2
:1007B000B98BDF8BCE8B1DA21EA21FA218A619A675
:1007C000A201B401C5014ADD99838883E114F104D3
:1007D00019F0F701D183C0830FB6F8940F9280917E
:1007E00008088F5F809308088091710890917208C3
:1007F000892B89F5D0937208C093710880910808FD
:10080000813009F038C085E498E08ADC80E598E022
:1008100087DC8BE598E084DC86E698E081DC8AE37F
:1008200098E07EDC8FE298E07BDC80E298E078DC88
:1008300085E198E075DC89E098E072DC8AE398E075
:1008400090932E0880932D088FE298E090932C08C7
:1008500080932B0810C08091020881110CC0E09198
:100860007108F0917208928D8A8D891720F0D093CB
:100870007208C09371088091FB078F5F8093FB071C
:100880008A8D90910308981710F480930308FBE079
:100890008F9FC0011124B6018B5B974F56DC0F90E0
:1008A0000FBE80910208882349F0E0917108F09111
:1008B0007208928D8A8D981708F476DD81E001C068
:1008C0008FEFDF91CF910F91FF90EF90DF90CF905E
:1008D000BF90AF909F908F907F906F905F904F9060
:1008E00008950F931F93CF93DF9320917108309158
:1008F000720882179307A1F1009791F10FB6F8944F
:100900000F92FC01248535852950384039F5FC01CA
:10091000208D318DF8E020323F0701F1232BF1F4D7
:10092000EC018C010E5F1F4FC80174DC8A8D909121
:100930000308981710F4809303082BE0829FC001EE
:100940001124B8018B5B974F00DCE0917108F091A6
:1009500072089A8D828D981708F026DD0F900FBED1
:10096000DF91CF911F910F910895EF92FF920F9316
:1009700085EFE82E87E0F82E00E020E030E045E546
:1009800050E060E072E08AE593E0B6DE8130D1F4B9
:10099000F8944FEF5FEFBA014093F7075093F807D1
:1009A0006093F9077093FA07809302081092040885
:1009B0001092050810920608109207080F91FF90F8
:1009C000EF90B8CC0F91FF90EF9008958091F407CD
:1009D0008F5F8093F4070895AF92BF92CF92DF921A
:1009E000EF92FF920F931F93CF93DF938091F407C1
:1009F0008111A8C0C0900408D0900508E0900608B6
:100A0000F09007088FEFC81AD80AE80AF80AC092CF
:100A10000408D0920508E0920608F0920708C11475
:100A2000D104E104F104B1F480912D0890912E08D5
:100A300020912B0830912C0830932E0820932D08FC
:100A400090932C0880932B088091FC078F5F8093F4
:100A5000FC078FDD8091F7079091F807A091F907C7
:100A6000B091FA07C0E0C816D906EA06FB0608F4FA
:100A700054C0DBE0E0912D08F0912E0880818111B7
:100A800004C08FEF9FEFDC0113C0E0912D08F091BF
:100A90002E080780F085E02D00851185F801828100
:100AA0009381A481B581C816D906EA06FB0648F4ED
:100AB0008093F7079093F807A093F907B093FA078C
:100AC0002CC05801F2E0AF0EB11CC501A3DBD80168
:100AD00058968D919C915997892B19F0C8010E96C3
:100AE00099DBF801828D90910308981710F4809398
:100AF0000308D89FC0011124B5018B5B974F25DBFC
:100B0000E0917108F0917208D8015A969C91828DFB
:100B1000981708F4AFCFC1E0ADCFE0917108F09124
:100B20007208E28DBBE0EB9FF0011124EB5BF74F05
:100B30008081823008F0C1E08091FD078823B1F008
:100B4000C1E014C08091FE079091FF07A0910008BA
:100B5000B09101080196A11DB11D8093FE079093ED
:100B6000FF07A0930008B0930108C0E08C2FDF912D
:100B7000CF911F910F91FF90EF90DF90CF90BF909A
:100B8000AF900895CF92DF92EF92FF920F931F9351
:100B9000CF93DF930FB6F8940F928091F4078150B2
:100BA0008093F4078091F407882311F080E05EC001
:100BB000809108088823D1F3C0E0D0E01BE001E079
:100BC00080912008882341F1E0912708F0912808BE
:100BD000C085D185CE010E961DDB7E0182E0E80E38
:100BE000F11CC70117DB8A8D90910308981710F448
:100BF00080930308189FC0011124B7018B5B974FA6
:100C0000A4DAE0917108F09172089A8D828D98179C
:100C1000B8F20093FD07D4CFCD2B09F0AADCC09029
:100C2000FE07D090FF07E0900008F0900108C11483
:100C3000D104E104F10499F0C1E0CEDE8111C0934A
:100C4000FD0781E0C81AD108E108F108B1F7109258
:100C5000FE071092FF071092000810920108809181
:100C6000FD07882309F4A2CF9FDB81E00F900FBE20
:100C7000DF91CF911F910F91FF90EF90DF90CF9078
:100C80000895CF92DF92EF92FF926B017C01672B68
:100C9000682B692B11F488DB08C098DE40E0C7019F
:100CA000B60189DC6FDF8823B1F3FF90EF90DF900E
:100CB000CF9008958091F407882321F081E08093FC
:100CC000FD0708951092FD07809103086BE0482FFF
:100CD00050E0649F9001659F300D1124F901EB5B9A
:100CE000F74F9081911102C08150F1CFA181B28163
:100CF00014960D90BC91A02DB283A183285B374F31
:100D0000A217B30731F414962D913C9115973283B5
:100D100021839BE0949FF001959FF00D1124EB5BE4
:100D2000F74F0180F281E02D2085318530937208E4
:100D3000209371088093030808950F931F93CF9316
:100D4000DF93EC010FB6F8940F92892B21F4C09138
:100D50007108D09172088E010E5F1F4FC8015ADAD8
:100D6000888D998D892B19F0CE010E9653DAB80132
:100D700089E098E0EAD989A5813009F419A60F9095
:100D80000FBE80910208882331F00FB6F8940F92BD
:100D9000F0DB0F900FBE8091710890917208C81718
:100DA000D907B1F480910208882311F0FDDA10C050
:100DB0009091090880910808981305C01092720854
:100DC0001092710805C0DF91CF911F910F9172CFE2
:100DD000DF91CF911F910F91089554D0C6DDFFCFC1
:100DE000C0E1809102018C27809302016AEF70E0DC
:100DF00080E090E046DFF5CFD0E268EB7BE080E07A
:100E000090E03FDF809177089091780896DF80919D
:100E10000201806180930201CCE0809102018D2764
:100E2000809302016AEF70E080E090E02ADFC15019
:100E3000A1F7E3CFD8E060E777E180E090E021DF41
:100E4000809175089091760878DF80910201806228
:100E500080930201CCE0809102018D2780930201F2
:100E60006AEF70E080E090E00CDFC150A1F7809164
:100E700077089091780835DD809175089091760813
:100E800030DDD9CFEF92FF920F93E1E0F1E0808166
:100E9000806180838081806280838081886080839C
:100EA000E2E0F1E0808180618083808180628083E4
:100EB00080818860808387E7E82E88E0F82E00E054
:100EC00020E030E045E550E065E072E080EF96E03C
:100ED00013DC95E7E92E98E0F92E20E030E045E5B7
:100EE00050E069E072E08CEF96E006DC23E7E22E4A
:100EF00028E0F22E20E030E045E550E06FE072E0BF
:100F00008AE197E0F9DB0F91FF90EF900895F89454
:020F1000FFCF11
:100F120049444C450052656400477265656E004263
:040F22006C75650085
:00000001FF
