:1000000071C000008CC000008AC0000088C00000E1
:1000100086C0000084C0000082C0000080C00000D4
:100020007EC000007CC000007AC0000078C00000E4
:1000300076C0000074C0000072C0000070C00000F4
:100040006EC0000063C200006AC0000068C000000B
:1000500066C0000064C0000062C0000060C0000014
:100060005EC000005CC000005AC0000058C0000024
:1000700056C0000054C0000052C0000050C0000034
:100080004EC000004CC000004AC0000048C0000044
:1000900046C0000044C0000042C0000040C0000054
:1000A0003EC000003CC000003AC0000038C0000064
:1000B00036C0000034C0000032C0000030C0000074
:1000C0002EC000002CC000002AC0000028C0000084
:1000D00026C0000024C0000022C0000020C0000094
:1000E0001EC0000011241FBECFEFD1E2DEBFCDBF86
:1000F00012E0A0E0B2E0E2E7FEE000E00BBF02C0E9
:1001000007900D92AA30B107D9F724E0AAE0B2E037
:1001100001C01D92A338B207E1F794D6A8C670CFEC
:10012000FC010396928381834FEF5FEFBA01438313
:100130005483658376839087878392878187108233
:100140000895FC01138612860895CF93DF939C01D6
:10015000FB01DC011196CD91DC911297D583C4830C
:100160008E819F81978386838E819F81DC01159686
:100170007C936E9314977F836E8333872287F90174
:1001800080818F5F8083DF91CF910895EF92FF92FE
:100190000F931F93CF93DF937C01FB01408151812B
:1001A000628173814F3F8FEF58076807780721F40A
:1001B000E701A985BA8512C0D701139614968D91CF
:1001C0009C911597EC01088119812A813B81401788
:1001D00051076207730710F0DC01F0CF14968D9180
:1001E0009C91159795838483EC01FF83EE83B783FD
:1001F000A6831596FC93EE931497F386E286F70197
:1002000080818F5F8083DF91CF911F910F91FF904D
:10021000EF900895CF93DF93FC01A285B38584818D
:10022000958126813781EC013F832E83C681D7815A
:100230009D838C8311968D919C911297E817F907F5
:1002400021F41296DC93CE931197138612868C912B
:1002500081508C938C91DF91CF91089531E1FC0115
:100260003083319722E220833197A3E3A083319733
:1002700060833197708331971082319760E8608393
:1002800031971082319762E06083319763E0608339
:10029000319764E06083319765E06083319766E071
:1002A0006083319767E06083319768E060833197BE
:1002B00069E06083319760E16083319730833197E3
:1002C00032E13083319733E13083319734E1308349
:1002D000319735E13083319736E13083319737E11B
:1002E0003083319738E13083319739E1308331976A
:1002F00030E23083319731E2308331972083319778
:1003000023E220833197408331975083319726E24F
:100310002083319727E22083319728E22083319789
:1003200029E22083319720E32083319721E3208342
:1003300086970895109289008CE7809388008BE05F
:1003400080938100EFE6F0E0808182608083A0915D
:100350007F04B0918004CD91CDBFDD91DEBFFF91D0
:10036000EF91DF91CF91BF91AF919F918F917F914D
:100370006F915F914F913F912F911F910F91FF903E
:10038000EF90DF90CF90BF90AF909F908F907F9035
:100390006F905F904F903F902F901F900F900FBEE7
:1003A0000F90089581E008950F920FB6F8940F9280
:1003B0001F9211242F923F924F925F926F927F92E1
:1003C0008F929F92AF92BF92CF92DF92EF92FF9265
:1003D0000F931F932F933F934F935F936F937F934D
:1003E0008F939F93AF93BF93CF93DF93EF93FF933D
:1003F000A0917F04B09180040DB60D920EB60D92BF
:10040000B2D4A0917F04B0918004CD91CDBFDD9195
:10041000DEBFFF91EF91DF91CF91BF91AF919F919F
:100420008F917F916F915F914F913F912F911F918C
:100430000F91FF90EF90DF90CF90BF90AF909F9083
:100440008F907F906F905F904F903F902F901F9074
:100450000F900FBE0F9008950F920FB6F8940F9261
:100460001F9211242F923F924F925F926F927F9230
:100470008F929F92AF92BF92CF92DF92EF92FF92B4
:100480000F931F932F933F934F935F936F937F939C
:100490008F939F93AF93BF93CF93DF93EF93FF938C
:1004A000A0917F04B09180040DB60D920EB60D920E
:1004B000ABD2811158D4A0917F04B0918004CD912A
:1004C000CDBFDD91DEBFFF91EF91DF91CF91BF9165
:1004D000AF919F918F917F916F915F914F913F91DC
:1004E0002F911F910F91FF90EF90DF90CF90BF90D1
:1004F000AF909F908F907F906F905F904F903F90C4
:100500002F901F900F900FBE0F900895A5DF1895A4
:10051000CF93DF93EC0164D280910A0290910B0299
:10052000892B31F48FE092E090930B0280930A02C2
:1005300020910C0230910D02C9018C0F9D1F833F49
:1005400041E0940770F42817390758F4C0910A0263
:10055000D0910B02C20FD31F90930D0280930C0217
:1005600002C0C0E0D0E026D3CE01DF91CF91089544
:100570000895E0913B04F0913C048081811104C016
:100580008FEF9FEFDC010EC0E0913B04F0913C0443
:100590000780F085E02D0084F185E02D8281938134
:1005A000A481B5818093050490930604A093070469
:1005B000B093080408958F929F92AF92BF92CF920A
:1005C000DF92EF92FF92CF936B017C01C42F80905A
:1005D000120490901304A0901404B090150480911C
:1005E0007F0490918004029615DE8FEFC816D8061E
:1005F000E806F806A1F4CC2391F060917F04709195
:1006000080046E5F7F4F87E194E0CF91FF90EF9081
:10061000DF90CF90BF90AF909F908F9096CDC80CF9
:10062000D91CEA1CFB1CE0917F04F0918004C2827B
:10063000D382E482F58260917F0470918004C814B3
:10064000D904EA04FB0480F48091390490913A04BF
:100650006E5F7F4FCF91FF90EF90DF90CF90BF9074
:10066000AF909F908F9092CD80913B0490913C04ED
:100670006E5F7F4F8BDD8091050490910604A09101
:100680000704B0910804C816D906EA06FB0640F430
:10069000C0920504D0920604E0920704F092080488
:1006A000CF91FF90EF90DF90CF90BF90AF909F9051
:1006B0008F900895809122048823E1F30FB6F89477
:1006C0000F92E0912A04F0912B04C085D185CE01D0
:1006D0000296A0DD809116048150809316048091CB
:1006E00022048150809322040F900FBE8B8D9C8D2D
:1006F0003FDFCE013DDFDECF4F925F926F927F9260
:100700008F929F92AF92BF92CF92DF92EF92FF9221
:100710000F93CF93DF934C016B015A012901CA015A
:10072000F7DE3C01892B09F4CBC08AE290E0F0DED1
:10073000EC01009789F07C8E6B8E21E0A21AB10843
:10074000A60CB71CC114D104C1F0BC01635E7F4F7D
:10075000F601C601089606C0C3010ADFB1C0E8175A
:10076000F90749F09F014191DB014D93BD01D9018A
:100770002C912111F4CF1CA201C01D8E043008F071
:1007800003E00A8F6E01B2E0CB0ED11CC601D9DCAA
:10079000CE010E96D6DCDB87CA8784E090E0A0E02D
:1007A000B0E0801B9109A109B1098E879F87A88BB2
:1007B000B98BDF8BCE8B1DA21EA21FA218A619A675
:1007C000A201B401C5014ADD99838883E114F104D3
:1007D00019F0F701D183C0830FB6F8940F9280917E
:1007E00016048F5F8093160480917F04909180049B
:1007F000892B89F5D0938004C0937F0480911604DF
:10080000813009F038C083E594E08ADC8EE594E01D
:1008100087DC89E694E084DC84E794E081DC88E48A
:1008200094E07EDC8DE394E07BDC8EE294E078DC87
:1008300083E294E075DC87E194E072DC88E494E084
:1008400090933C0480933B048DE394E090933A04AE
:100850008093390410C08091100481110CC0E09184
:100860007F04F0918004928D8A8D891720F0D093B7
:100870008004C0937F04809109048F5F80930904F2
:100880008A8D90911104981710F480931104FBE065
:100890008F9FC0011124B6018D5A9B4F56DC0F90DB
:1008A0000FBE80911004882349F0E0917F04F091FD
:1008B0008004928D8A8D981708F476DD81E001C05E
:1008C0008FEFDF91CF910F91FF90EF90DF90CF905E
:1008D000BF90AF909F908F907F906F905F904F9060
:1008E00008950F931F93CF93DF93EC010FB6F89405
:1008F0000F92892B21F4C0917F04D09180048E0146
:100900000E5F1F4FC80186DC888D998D892B19F0E9
:10091000CE010E967FDC809109048F5F80930904DD
:1009200080917F0490918004C817D90751F4B801D1
:1009300083E294E00ADC809122048F5F809322049A
:100940000BC0809116048150809316048B8D9C8D72
:100950000FDECE010DDE0DDE0F900FBE8091100474
:10096000882341F080917F0490918004C817D907B3
:1009700009F41ADDDF91CF911F910F910895EF9245
:10098000FF920F9383E0E82E84E0F82E00E020E051
:1009900030E045E550E060E072E08AE593E0ACDEEF
:1009A0008130D1F4F8944FEF5FEFBA014093050422
:1009B0005093060460930704709308048093100416
:1009C0001092120410921304109214041092150441
:1009D0000F91FF90EF90AECC0F91FF90EF900895A4
:1009E000809102048F5F8093020408950FB6F894FB
:1009F0000F926091120470911304809114049091ED
:100A000015040F900FBE0895AF92BF92CF92DF9260
:100A1000EF92FF920F931F93CF93DF938091020485
:100A20008111A8C0C0901204D0901304E090140467
:100A3000F09015048FEFC81AD80AE80AF80AC09295
:100A40001204D0921304E0921404F0921504C1141D
:100A5000D104E104F104B1F480913B0490913C0491
:100A60002091390430913A0430933C0420933B04A4
:100A700090933A048093390480910A048F5F8093A5
:100A80000A0477DD8091050490910604A091070483
:100A9000B0910804C0E0C816D906EA06FB0608F4BF
:100AA00054C0DBE0E0913B04F0913C048081811173
:100AB00004C08FEF9FEFDC0113C0E0913B04F09185
:100AC0003C040780F085E02D00851185F8018281C6
:100AD0009381A481B581C816D906EA06FB0648F4BD
:100AE0008093050490930604A0930704B093080430
:100AF0002CC05801F2E0AF0EB11CC5018BDBD80150
:100B000058968D919C915997892B19F0C8010E9692
:100B100081DBF801828D90911104981710F4809375
:100B20001104D89FC0011124B5018D5A9B4F0DDBD4
:100B3000E0917F04F0918004D8015A969C91828DB7
:100B4000981708F4AFCFC1E0ADCFE0917F04F091EA
:100B50008004E28DBBE0EB9FF0011124ED5AFB4FC6
:100B60008081823008F0C1E080910B048823B1F0CD
:100B7000C1E014C080910C0490910D04A0910E046A
:100B8000B0910F040196A11DB11D80930C049093A8
:100B90000D04A0930E04B0930F04C0E08C2FDF91DE
:100BA000CF911F910F91FF90EF90DF90CF90BF906A
:100BB000AF900895CF92DF92EF92FF920F931F9321
:100BC000CF93DF930FB6F8940F9280910204815077
:100BD0008093020480910204882311F080E05EC0BB
:100BE000809116048823D1F3C0E0D0E01BE001E03F
:100BF00080912E04882341F1E0913504F091360470
:100C0000C085D185CE010E9605DB7E0182E0E80E1F
:100C1000F11CC701FFDA8A8D90911104981710F426
:100C200080931104189FC0011124B7018D5A9B4F66
:100C30008CDAE0917F04F09180049A8D828D981770
:100C4000B8F200930B04D4CFCD2B09F092DCC09006
:100C50000C04D0900D04E0900E04F0900F04C11429
:100C6000D104E104F10499F0C1E0CEDE8111C0931A
:100C70000B0481E0C81AD108E108F108B1F710921D
:100C80000C0410920D0410920E0410920F04809127
:100C90000B04882309F4A2CF87DB81E00F900FBEFD
:100CA000DF91CF911F910F91FF90EF90DF90CF9048
:100CB00008958F929F92AF92BF92CF92DF92EF9260
:100CC000FF920F931F93CF93DF93EC016A017B0197
:100CD00087DE8090120490901304A0901404B090CA
:100CE0001504088119812A813B81D901C8018C0D25
:100CF0009D1DAE1DBF1D80169106A206B30630F4E1
:100D000080179107A207B30760F405C08017910709
:100D1000A207B30740F021E088169906AA06BB0691
:100D200018F020E001C021E088839983AA83BB8367
:100D3000222341F0BC01CD01681979098A099B0978
:100D400040E039DC37DF811101C02EDBDF91CF912C
:100D50001F910F91FF90EF90DF90CF90BF90AF90D9
:100D60009F908F90089580910204882321F081E064
:100D700080930B04089510920B04809111046BE092
:100D8000482F50E0649F9001659F300D1124F901B8
:100D9000ED5AFB4F9081911102C08150F1CFA1819A
:100DA000B28114960D90BC91A02DB283A1832A5AD2
:100DB0003B4FA217B30731F414962D913C91159730
:100DC000328321839BE0949FF001959FF00D1124C5
:100DD000ED5AFB4F0180F281E02D20853185309363
:100DE000800420937F04809311040895CF93DF93B0
:100DF00000D000D0CDB7DEB77C01F8DD69837A83FF
:100E00008B839C838091020188608093020187011B
:100E100088E0F82E44EF51E060E070E0CE010196EA
:100E200048DF809102018F25809302010333110571
:100E300018F40F5F1F4FEECF8091810490918204D0
:100E400050DDF7CF8091010188608093010181E836
:100E5000E82E84E0F82E00E02AE030E045E550E09E
:100E600065E072E086EF96E047DC89DDFFCFF8941D
:020E7000FFCFB2
:0A0E720049444C4500426C756500D0
:00000001FF
