S01800006672656552544F535F313238305F76302E73726563F3
S113000071C000008CC000008AC0000088C00000DD
S113001086C0000084C0000082C0000080C00000D0
S11300207EC000007CC000007AC0000078C00000E0
S113003076C0000074C0000072C0000070C00000F0
S11300406EC0000061C200006AC0000068C0000009
S113005066C0000064C0000062C0000060C0000010
S11300605EC000005CC000005AC0000058C0000020
S113007056C0000054C0000052C0000050C0000030
S11300804EC000004CC000004AC0000048C0000040
S113009046C0000044C0000042C0000040C0000050
S11300A03EC000003CC000003AC0000038C0000060
S11300B036C0000034C0000032C0000030C0000070
S11300C02EC000002CC000002AC0000028C0000080
S11300D026C0000024C0000022C0000020C0000090
S11300E01EC0000011241FBECFEFD1E2DEBFCDBF82
S11300F012E0A0E0B2E0EEEFFFE000E00BBF02C0D0
S113010007900D92A431B107D9F728E0A4E1B2E039
S113011001C01D92A937B207E1F7CBD66EC770CFE5
S1130120FC010396928381834FEF5FEFBA0143830F
S1130130548365837683908787839287818710822F
S11301400895FC01138612860895CF93DF939C01D2
S1130150FB01DC011196CD91DC911297D583C48308
S11301608E819F81978386838E819F81DC01159682
S11301707C936E9314977F836E8333872287F90170
S113018080818F5F8083DF91CF9108950F931F93B8
S1130190CF93DF93EB01088119812A813B810F3FC3
S11301A04FEF14072407340721F4FC01A185B2851D
S11301B011C0DC01139601C0DF011496ED91FC918E
S11301C015974081518162817381041715072607B1
S11301D0370790F71496ED91FC911597FD83EC8306
S11301E0D783C683BF83AE831596DC93CE931497CF
S11301F09B878A87FC0120812F5F2083DF91CF9129
S11302001F910F910895CF93DF93FC01A285B385CD
S1130210C481D581868197819F838E83C681D7814E
S1130220848195819D838C8311968D919C911297E5
S1130230E817F90731F48681978112969C938E937F
S11302401197138612868C9181508C938C91DF9137
S1130250CF910895109289008CE7809388008BE0F9
S113026080938100EFE6F0E08081826080830895CE
S113027031E1FC013083319722E220833197A3E3FB
S1130280A0833197608331977083319710823197BF
S113029060E8608331971082319762E06083319720
S11302A063E06083319764E06083319765E0608345
S11302B0319766E06083319767E06083319768E047
S11302C06083319769E06083319760E1608331979F
S11302D03083319732E13083319733E13083319782
S11302E034E13083319735E13083319736E130831F
S11302F0319737E13083319738E13083319739E1F1
S11303003083319730E23083319731E23083319753
S11303102083319723E220833197408331975083A0
S1130320319726E22083319727E22083319728E210
S11303302083319729E22083319720E3208331976A
S113034021E320838697089585DFA0917108B091F9
S11303507208CD91CDBFDD91DEBFFF91EF91DF91AA
S1130360CF91BF91AF919F918F917F916F915F9149
S11303704F913F912F911F910F91FF90EF90DF903C
S1130380CF90BF90AF909F908F907F906F905F9031
S11303904F903F902F901F900F900FBE0F90089595
S11303A081E008950F920FB6F8940F921F921124D2
S11303B02F923F924F925F926F927F928F929F9271
S11303C0AF92BF92CF92DF92EF92FF920F931F935F
S11303D02F933F934F935F936F937F938F939F9349
S11303E0AF93BF93CF93DF93EF93FF93A0917108E3
S11303F0B09172080DB60D920EB60D92C4D4A091B0
S11304007108B0917208CD91CDBFDD91DEBFFF912F
S1130410EF91DF91CF91BF91AF919F918F917F9198
S11304206F915F914F913F912F911F910F91FF9089
S1130430EF90DF90CF90BF90AF909F908F907F9080
S11304406F905F904F903F902F901F900F900FBE32
S11304500F9008950F920FB6F8940F921F921124E3
S11304602F923F924F925F926F927F928F929F92C0
S1130470AF92BF92CF92DF92EF92FF920F931F93AE
S11304802F933F934F935F936F937F938F939F9398
S1130490AF93BF93CF93DF93EF93FF93A091710832
S11304A0B09172080DB60D920EB60D92F7D281116D
S11304B06AD4A0917108B0917208CD91CDBFDD913D
S11304C0DEBFFF91EF91DF91CF91BF91AF919F91EB
S11304D08F917F916F915F914F913F912F911F91D8
S11304E00F91FF90EF90DF90CF90BF90AF909F90CF
S11304F08F907F906F905F904F903F902F901F90C0
S11305000F900FBE0F900895A5DF1895CF93DF933A
S1130510EC01BED28091140290911502892B31F422
S113052089E192E0909315028093140220911602BF
S113053030911702C9018C0F9D1F8B3D45E0940734
S113054070F42817390770F4C0911402D091150281
S1130550C20FD31F909317028093160205C0C0E008
S1130560D0E002C0C0E0D0E073D3CE01DF91CF91E0
S113057008950895FC01248535852950384059F49F
S1130580FC01808D918DF8E080329F0731F0892B3A
S113059031F080E0089580E0089580E0089581E0DE
S11305A00895E0912D08F0912E08808181110CC0EE
S11305B08FEF9FEFDC018093F7079093F807A093E8
S11305C0F907B093FA070895E0912D08F0912E08E9
S11305D00780F085E02D0084F185E02D82819381F0
S11305E0A481B5818093F7079093F807A093F90746
S11305F0B093FA070895CF93DF93EC018B8D9C8D14
S1130600B8DFCE01B6DFDF91CF9108956F927F926C
S11306108F929F92AF92BF92CF92DF92EF920F93FD
S11306201F93CF93DF93CDB7DEB74C01F501838DD4
S1130630948D215031093C01620E731E61157105C0
S113064089F416C0822F90E0FB01E80FF91F308176
S1130650D501A80FB91F5D963C938081882329F0AA
S11306602F5F01C020E0283068F3F50114A202C016
S1130670F501158EF3E0FE1520F40F2EF3E0EF2EB6
S1130680F02DF501E28EC50102965BDDC5010E96E3
S113069058DDF501B386A28684E090E0A0E0B0E0E6
S11306A08E199109A109B10986879787A08BB18B0F
S11306B0B78AA68A15A216A217A210A611A6A80187
S11306C0B401C301D5DDF50191838083C114D10444
S11306D019F0F601B182A082DF91CF911F910F91A1
S11306E0EF90DF90CF90BF90AF909F908F907F90CE
S11306F06F900895CF93C0E008C02BE0C29FC00163
S113070011248B5B974F0CDDCF5FC430B0F38AE3C9
S113071098E006DD8FE298E003DD80E298E000DDFA
S113072085E198E0FDDC89E098E0FADC8AE398E072
S113073090932E0880932D088FE298E090932C08D4
S113074080932B08CF910895CF93DF93EC010FB6DC
S1130750F8940F92809108088F5F80930808809125
S1130760710890917208892B51F4D0937208C09348
S1130770710880910808813091F4BCDF10C0809129
S1130780020881110CC0E0917108F0917208928DF9
S11307908A8D891720F0D0937208C09371088091D4
S11307A0FB078F5F8093FB078A8D9091030898174E
S11307B010F4809303082BE0829FC0011124BE0132
S11307C06E5F7F4F8B5B974FC0DC0F900FBE8091A5
S11307D00208882349F0E0917108F0917208928D23
S11307E08A8D981708F4DEDDDF91CF910895CF93B9
S11307F0DF931AC00FB6F8940F92E0911C08F091A1
S11308001D08C085D185CE010296FDDC80910808C3
S113081081508093080880911408815080931408B3
S11308200F900FBECE01E7DE809114088111E2CF54
S1130830DF91CF910895DBDFFECF8F929F92AF922D
S1130840BF92CF92DF92EF92FF92CF936B017C0124
S1130850C42F8090040890900508A0900608B090DA
S1130860070880917108909172080296CCDC8FEF92
S1130870C816D806E806F80661F4CC2351F0609156
S11308807108709172086E5F7F4F89E098E05DDCBB
S11308903DC0C80CD91CEA1CFB1CE0917108F09106
S11308A07208C282D382E482F582C814D904EA04AD
S11308B0FB0460F4609171087091720880912B08B8
S11308C090912C086E5F7F4F61DC20C060917108AD
S11308D07091720880912D0890912E086E5F7F4F61
S11308E055DC8091F7079091F807A091F907B09132
S11308F0FA07C816D906EA06FB0640F4C092F707C1
S1130900D092F807E092F907F092FA07CF91FF909E
S1130910EF90DF90CF90BF90AF909F908F9008950D
S11309202F923F924F925F926F927F928F929F92FB
S1130930AF92BF92CF92DF92EF92FF920F931F93E9
S1130940CF93DF933C011B015A012901CA01DEDD6B
S11309506C01892B61F08AE290E0D8DDEC01892BEF
S113096019F0DC8ECB8E05C0C60103DE02C0C0E0E8
S1130970D0E0209781F0950140E050E0812C912C4B
S11309805E016701E02E8201B101C3013FDECE01A9
S1130990DBDE81E001C08FEFDF91CF911F910F91DA
S11309A0FF90EF90DF90CF90BF90AF909F908F908B
S11309B07F906F905F904F903F902F9008950F938A
S11309C01F93CF93DF93209171083091720882179F
S11309D0930741F1009731F1EC010FB6F8940F92AF
S11309E0C9DD8823E9F08E010E5F1F4FC8010BDCBF
S11309F08A8D90910308981710F4809303082BE0D4
S1130A00829FC0011124B8018B5B974F9EDB9A8DA6
S1130A10E0917108F0917208828D981708F0C2DC99
S1130A200F900FBEDF91CF911F910F910895EF9218
S1130A30FF920F930F2EF5EFEF2EF7E0FF2EF02D20
S1130A4000E020E030E045E550E060E072E08BE15A
S1130A5094E066DF8130C1F4F8948FEF9FEFDC01FE
S1130A608093F7079093F807A093F907B093FA07D8
S1130A7081E08093020810920408109205081092F5
S1130A8006081092070860DC0F91FF90EF9008951C
S1130A908091F4078F5F8093F4070895BF92CF92FB
S1130AA0DF92EF92FF920F931F93CF93DF93809186
S1130AB0F4078111ABC0C0900408D0900508E09001
S1130AC00608F09007082FEFC21AD20AE20AF20AC7
S1130AD0C0920408D0920508E0920608F092070834
S1130AE0C114D104E104F104B1F480912D08909172
S1130AF02E0820912B0830912C0830932E08209337
S1130B002D0890932C0880932B088091FC078F5F0D
S1130B108093FC0746DD8091F7079091F807A09138
S1130B20F907B091FA07C816D906EA06FB0628F4B5
S1130B30B12C57C0BB24B39401C0B12CE0912D0853
S1130B40F0912E08808181110CC08FEF9FEFDC01A2
S1130B508093F7079093F807A093F907B093FA07E7
S1130B6040C0E0912D08F0912E080780F085E02D1B
S1130B70C085D1858A819B81AC81BD81C816D90687
S1130B80EA06FB0648F48093F7079093F807A093CE
S1130B90F907B093FA0725C08E010E5F1F4FC801F5
S1130BA032DB888D998D892B19F0CE010E962BDBC3
S1130BB08A8D90910308981710F4809303082BE012
S1130BC0829FC0011124B8018B5B974FBEDA9A8DC6
S1130BD0E0917108F0917208828D981708F0AACFFD
S1130BE0ADCFE0917108F0917208E28D8BE0E89F3F
S1130BF0F0011124EB5BF74F8081823010F0BB24AD
S1130C00B3948091FD07811116C017C08091FE072F
S1130C109091FF07A0910008B09101080196A11DD1
S1130C20B11D8093FE079093FF07A0930008B09333
S1130C300108B12C02C0BB24B3948B2DDF91CF915A
S1130C401F910F91FF90EF90DF90CF90BF90089588
S1130C50CF92DF92EF92FF920F931F93CF93DF9384
S1130C600FB6F8940F928091F40781508093F407A3
S1130C708091F40781115FC08091080881112AC016
S1130C805DC0E0912708F0912808C085D185CE0188
S1130C900E96B9DA8E010E5F1F4FC801B4DA8A8D41
S1130CA090910308981710F4809303082BE0829F17
S1130CB0C0011124B8018B5B974F47DA9A8DE091FC
S1130CC07108F0917208828D981730F081E080935A
S1130CD0FD0702C0C0E0D0E0809120088111D1CF8F
S1130CE0CD2B09F05EDCC090FE07D090FF07E090AA
S1130CF00008F0900108C114D104E104F104A1F04A
S1130D00CDDE882319F081E08093FD0781E0C81AC5
S1130D10D108E108F108A1F71092FE071092FF072D
S1130D2010920008109201088091FD07882329F091
S1130D3039DB81E003C080E001C080E00F900FBE8A
S1130D40DF91CF911F910F91FF90EF90DF90CF90A3
S1130D500895CF92DF92EF92FF926B017C01672B93
S1130D60682B692B39F094DE40E0C701B60165DDDC
S1130D706FDF01C080E0811101C014DBFF90EF90B0
S1130D80DF90CF9008958091F407882321F081E0CB
S1130D908093FD0708951092FD078091030801C018
S1130DA08150282F30E09BE0929FF001939FF00D3B
S1130DB01124EB5BF74F9081992391F39BE0929F71
S1130DC0A001939F500D1124DF010180F281E02DD9
S1130DD00480F581E02D1296FC93EE931197485B05
S1130DE0574FE417F50729F444815581FD015283D7
S1130DF041839BE0929FF001939FF00D1124EB5BE4
S1130E00F74F0180F281E02D2085318530937208FF
S1130E10209371088093030808950F931F93CF9331
S1130E20DF93EC010FB6F8940F92892B21F4C09153
S1130E307108D09172088E010E5F1F4FC801E3D96B
S1130E40888D998D892B19F0CE010E96DCD9B801C5
S1130E5089E098E07AD989A5813009F419A60F9020
S1130E600FBE80910208882331F00FB6F8940F92D8
S1130E7098DB0F900FBE8091710890917208C8178B
S1130E80D90791F480910208882311F08BDA0CC001
S1130E909091090880910808981305C0109272086F
S1130EA01092710801C06FDFDF91CF911F910F91F4
S1130EB0089558D0BCDDFFCFE2E0F1E0908180E1FD
S1130EC0892780836AEF70E080E090E042DFF4CF0E
S1130ED068EB7BE080E090E03CDF809177089091C4
S1130EE078089BDFE2E0F1E0808180618083C0E0EC
S1130EF00CC0E2E0F1E0908180E2892780836AEF10
S1130F0070E080E090E025DFCF5FCC3090F3E0CF5D
S1130F1060E777E180E090E01CDF809175089091B4
S1130F2076087BDFE2E0F1E0808180628083C0E0CC
S1130F300CC0E2E0F1E0908188E0892780836AEFC9
S1130F4070E080E090E005DFCF5FCC3090F38091DB
S1130F5077089091780833DD809175089091760830
S1130F602EDDD6CFEF92FF920F93E1E0F1E0808186
S1130F7080618083808180628083808188608083B7
S1130F80E2E0F1E0808180618083808180628083FF
S1130F908081886080830F2EF7E7EF2EF8E0FF2E24
S1130FA0F02D00E020E030E045E550E065E072E03F
S1130FB08CE597E0B5DC0F2EF5E7EF2EF8E0FF2E79
S1130FC0F02D20E030E045E550E069E072E088E68D
S1130FD097E0A6DC0F2EF3E7EF2EF8E0FF2EF02DBE
S1130FE020E030E045E550E06FE072E088E897E00B
S1110FF097DC0F91FF90EF900895F894FFCFD7
S1130FFE49444C450052656400477265656E004273
S107100E6C75650094
S9030000FC
