:1000000071C000008CC000008AC0000088C00000E1
:1000100086C0000084C0000082C0000080C00000D4
:100020007EC000007CC000007AC0000078C00000E4
:1000300076C0000074C0000072C0000070C00000F4
:100040006EC0000061C200006AC0000068C000000D
:1000500066C0000064C0000062C0000060C0000014
:100060005EC000005CC000005AC0000058C0000024
:1000700056C0000054C0000052C0000050C0000034
:100080004EC000004CC000004AC0000048C0000044
:1000900046C0000044C0000042C0000040C0000054
:1000A0003EC000003CC000003AC0000038C0000064
:1000B00036C0000034C0000032C0000030C0000074
:1000C0002EC000002CC000002AC0000028C0000084
:1000D00026C0000024C0000022C0000020C0000094
:1000E0001EC0000011241FBECFEFD1E2DEBFCDBF86
:1000F00012E0A0E0B2E0E0E4FFE000E00BBF02C0ED
:1001000007900D92AA30B107D9F724E0AAE0B2E037
:1001100001C01D92A338B207E1F7F9D60FC770CF1F
:10012000FC010396928381834FEF5FEFBA01438313
:100130005483658376839087878392878187108233
:100140000895FC01138612860895CF93DF939C01D6
:10015000FB01DC011196CD91DC911297D583C4830C
:100160008E819F81978386838E819F81DC01159686
:100170007C936E9314977F836E8333872287F90174
:1001800080818F5F8083DF91CF9108950F931F93BC
:10019000CF93DF93EB01088119812A813B810F3FC7
:1001A0004FEF14072407340721F4FC01A185B28521
:1001B00011C0DC01139601C0DF011496ED91FC9192
:1001C00015974081518162817381041715072607B5
:1001D000370790F71496ED91FC911597FD83EC830A
:1001E000D783C683BF83AE831596DC93CE931497D3
:1001F0009B878A87FC0120812F5F2083DF91CF912D
:100200001F910F910895CF93DF93FC01A285B385D1
:10021000C481D581868197819F838E83C681D78152
:10022000848195819D838C8311968D919C911297E9
:10023000E817F90731F48681978112969C938E9383
:100240001197138612868C9181508C938C91DF913B
:10025000CF910895109289008CE7809388008BE0FD
:1002600080938100EFE6F0E08081826080830895D2
:1002700031E1FC013083319722E220833197A3E3FF
:10028000A0833197608331977083319710823197C3
:1002900060E8608331971082319762E06083319724
:1002A00063E06083319764E06083319765E0608349
:1002B000319766E06083319767E06083319768E04B
:1002C0006083319769E06083319760E160833197A3
:1002D0003083319732E13083319733E13083319786
:1002E00034E13083319735E13083319736E1308323
:1002F000319737E13083319738E13083319739E1F5
:100300003083319730E23083319731E23083319757
:100310002083319723E220833197408331975083A4
:10032000319726E22083319727E22083319728E214
:100330002083319729E22083319720E3208331976E
:1003400021E320838697089585DFA0917F04B091F3
:100350008004CD91CDBFDD91DEBFFF91EF91DF91A4
:10036000CF91BF91AF919F918F917F916F915F914D
:100370004F913F912F911F910F91FF90EF90DF9040
:10038000CF90BF90AF909F908F907F906F905F9035
:100390004F903F902F901F900F900FBE0F90089599
:1003A00081E008950F920FB6F8940F921F921124D6
:1003B0002F923F924F925F926F927F928F929F9275
:1003C000AF92BF92CF92DF92EF92FF920F931F9363
:1003D0002F933F934F935F936F937F938F939F934D
:1003E000AF93BF93CF93DF93EF93FF93A0917F04DD
:1003F000B09180040DB60D920EB60D9211D5A0915C
:100400007F04B0918004CD91CDBFDD91DEBFFF911F
:10041000EF91DF91CF91BF91AF919F918F917F919C
:100420006F915F914F913F912F911F910F91FF908D
:10043000EF90DF90CF90BF90AF909F908F907F9084
:100440006F905F904F903F902F901F900F900FBE36
:100450000F9008950F920FB6F8940F921F921124E7
:100460002F923F924F925F926F927F928F929F92C4
:10047000AF92BF92CF92DF92EF92FF920F931F93B2
:100480002F933F934F935F936F937F938F939F939C
:10049000AF93BF93CF93DF93EF93FF93A0917F042C
:1004A000B09180040DB60D920EB60D9201D381115C
:1004B000B7D4A0917F04B0918004CD91CDBFDD91E0
:1004C000DEBFFF91EF91DF91CF91BF91AF919F91EF
:1004D0008F917F916F915F914F913F912F911F91DC
:1004E0000F91FF90EF90DF90CF90BF90AF909F90D3
:1004F0008F907F906F905F904F903F902F901F90C4
:100500000F900FBE0F900895A5DF1895CF93DF933E
:10051000EC01BAD280910A0290910B02892B31F43E
:100520008FE092E090930B0280930A0220910C02DC
:1005300030910D02C9018C0F9D1F833F41E094074C
:1005400070F42817390770F4C0910A02D0910B0299
:10055000C20FD31F90930D0280930C0205C0C0E020
:10056000D0E002C0C0E0D0E07DD3CE01DF91CF91DA
:1005700008950895E0913B04F0913C04808181113D
:100580000CC08FEF9FEFDC0180930504909306046D
:10059000A0930704B09308040895E0913B04F09100
:1005A0003C040780F085E02D0084F185E02D8281F8
:1005B0009381A481B5818093050490930604A09350
:1005C0000704B09308040895CF93DF93EC018B8D5B
:1005D0009C8DCFDFCE01CDDFDF91CF9108956F925B
:1005E0007F928F929F92AF92BF92CF92DF92EF92C3
:1005F0000F931F93CF93DF93CDB7DEB74C01F50177
:10060000838D948D215031093C01620E731E61155A
:10061000710589F416C0822F90E0FB01E80FF91FE5
:100620003081D501A80FB91F5D963C938081882346
:1006300029F02F5F01C020E0283068F3F50114A2F3
:1006400002C0F501158EF3E0FE1520F40F2EF3E045
:10065000EF2EF02DF501E28EC501029672DDC50187
:100660000E966FDDF501B386A28684E090E0A0E0EF
:10067000B0E08E199109A109B10986879787A08BEF
:10068000B18BB78AA68A15A216A217A210A611A628
:10069000A801B401C301ECDDF50191838083C1148D
:1006A000D10419F0F601B182A082DF91CF911F91A0
:1006B0000F91EF90DF90CF90BF90AF909F908F9071
:1006C0007F906F900895CF93C0E008C02BE0C29F49
:1006D000C00111248D5A9B4F23DDCF5FC430B0F38E
:1006E00088E494E01DDD8DE394E01ADD8EE294E071
:1006F00017DD83E294E014DD87E194E011DD88E406
:1007000094E090933C0480933B048DE394E09093B9
:100710003A0480933904CF910895CF93DF93EC018D
:100720000FB6F8940F92809116048F5F8093160491
:1007300080917F0490918004892B51F4D0938004A0
:10074000C0937F0480911604813091F4BCDF10C007
:100750008091100481110CC0E0917F04F09180041D
:10076000928D8A8D891720F0D0938004C0937F04E6
:10077000809109048F5F809309048A8D9091110400
:10078000981710F4809311042BE0829FC00111246C
:10079000BE016E5F7F4F8D5A9B4FD7DC0F900FBE0F
:1007A00080911004882349F0E0917F04F091800447
:1007B000928D8A8D981708F4F5DDDF91CF91089519
:1007C000CF93DF931AC00FB6F8940F92E0912A04EA
:1007D000F0912B04C085D185CE01029614DD809165
:1007E00016048150809316048091220481508093D6
:1007F00022040F900FBECE01E7DE8091220481110A
:10080000E2CFDF91CF910895DBDFFECF8F929F92F1
:10081000AF92BF92CF92DF92EF92FF92CF936B0194
:100820007C01C42F8090120490901304A0901404B3
:10083000B090150480917F04909180040296E3DCCF
:100840008FEFC816D806E806F80661F4CC2351F0FD
:1008500060917F04709180046E5F7F4F87E194E028
:1008600074DC3DC0C80CD91CEA1CFB1CE0917F0461
:10087000F0918004C282D382E482F582C814D90444
:10088000EA04FB0460F460917F047091800480911D
:10089000390490913A046E5F7F4F78DC20C06091FC
:1008A0007F047091800480913B0490913C046E5FC2
:1008B0007F4F6CDC8091050490910604A0910704A1
:1008C000B0910804C816D906EA06FB0640F4C092A7
:1008D0000504D0920604E0920704F0920804CF9138
:1008E000FF90EF90DF90CF90BF90AF909F908F9050
:1008F00008952F923F924F925F926F927F928F92C4
:100900009F92AF92BF92CF92DF92EF92FF920F939E
:100910001F93CF93DF933C011B015A012901CA01A8
:10092000F5DD6C01892B61F08AE290E0EFDDEC01EE
:10093000892B19F0DC8ECB8E05C0C6011ADE02C0F1
:10094000C0E0D0E0209781F0950140E050E0812C9C
:10095000912C5E016701E02E8201B101C3013FDEEF
:10096000CE01DBDE81E001C08FEFDF91CF911F91DF
:100970000F91FF90EF90DF90CF90BF90AF909F903E
:100980008F907F906F905F904F903F902F90089541
:100990000F931F93CF93DF93EC010FB6F8940F9250
:1009A000892B21F4C0917F04D09180048E010E5FC9
:1009B0001F4FC80128DC888D998D892B19F0CE0135
:1009C0000E9621DC809109048F5F80930904809149
:1009D0007F0490918004C817D90751F4B80183E2CD
:1009E00094E0B3DB809122048F5F8093220408C0DF
:1009F00080911604815080931604CE01E5DDBADDA6
:100A00000F900FBE80911004882341F080917F04E5
:100A100090918004C817D90709F4C4DCDF91CF9105
:100A20001F910F910895EF92FF920F930F2EF3E015
:100A3000EF2EF4E0FF2EF02D00E020E030E045E561
:100A400050E060E072E084E094E053DF8130C1F474
:100A5000F8948FEF9FEFDC018093050490930604D8
:100A6000A0930704B093080481E0809310041092CF
:100A7000120410921304109214041092150464DCF2
:100A80000F91FF90EF900895809102048F5F809303
:100A9000020408950FB6F8940F92609112047091B9
:100AA000130480911404909115040F900FBE0895C3
:100AB000BF92CF92DF92EF92FF920F931F93CF934B
:100AC000DF93809102048111ABC0C0901204D090DA
:100AD0001304E0901404F09015042FEFC21AD20A08
:100AE000E20AF20AC0921204D0921304E0921404B3
:100AF000F0921504C114D104E104F104B1F4809121
:100B00003B0490913C042091390430913A04309395
:100B10003C0420933B0490933A04809339048091E1
:100B20000A048F5F80930A0425DD8091050490916B
:100B30000604A0910704B0910804C816D906EA0675
:100B4000FB0628F4B12C57C0BB24B39401C0B12CD0
:100B5000E0913B04F0913C04808181110CC08FEF47
:100B60009FEFDC018093050490930604A093070493
:100B7000B093080440C0E0913B04F0913C0407802E
:100B8000F085E02DC085D1858A819B81AC81BD81B6
:100B9000C816D906EA06FB0648F48093050490932C
:100BA0000604A0930704B093080425C08E010E5FCD
:100BB0001F4FC80128DB888D998D892B19F0CE0134
:100BC0000E9621DB8A8D90911104981710F4809372
:100BD00011042BE0829FC0011124B8018D5A9B4F54
:100BE000B4DA9A8DE0917F04F0918004828D981799
:100BF00008F0AACFADCFE0917F04F0918004E28DA0
:100C00008BE0E89FF0011124ED5AFB4F8081823088
:100C100010F0BB24B39480910B04811116C017C04F
:100C200080910C0490910D04A0910E04B0910F04DA
:100C30000196A11DB11D80930C0490930D04A09307
:100C40000E04B0930F04B12C02C0BB24B3948B2DBF
:100C5000DF91CF911F910F91FF90EF90DF90CF9098
:100C6000BF900895CF92DF92EF92FF920F931F9360
:100C7000CF93DF930FB6F8940F92809102048150C6
:100C8000809302048091020481115FC08091160458
:100C900081112AC05DC0E0913504F0913604C08511
:100CA000D185CE010E96AFDA8E010E5F1F4FC801BF
:100CB000AADA8A8D90911104981710F48093110488
:100CC0002BE0829FC0011124B8018D5A9B4F3DDA61
:100CD0009A8DE0917F04F0918004828D981730F016
:100CE00081E080930B0402C0C0E0D0E080912E042C
:100CF0008111D1CFCD2B09F03DDCC0900C04D090F8
:100D00000D04E0900E04F0900F04C114D104E1042E
:100D1000F104A1F0CDDE882319F081E080930B046B
:100D200081E0C81AD108E108F108A1F710920C047B
:100D300010920D0410920E0410920F0480910B0477
:100D4000882329F02FDB81E003C080E001C080E030
:100D50000F900FBEDF91CF911F910F91FF90EF90F9
:100D6000DF90CF900895CF92DF92EF92FF920F9392
:100D70001F93CF93DF93EC016A017B0185DE009125
:100D800012041091130420911404309115048881E9
:100D90009981AA81BB81AC01BD014C0D5D1D6E1D09
:100DA0007F1D081719072A073B0760F448175907E2
:100DB0006A077B0798F4041715072607370780F0A2
:100DC00080E013C0481759076A077B0758F00417DB
:100DD00015072607370740F080E007C080E005C010
:100DE00081E003C081E001C081E0488359836A83C8
:100DF0007B83882341F0CB01BA01601B710B820B0E
:100E0000930B40E003DD2EDF811101C0CBDADF91CF
:100E1000CF911F910F91FF90EF90DF90CF900895A9
:100E200080910204882321F081E080930B040895CF
:100E300010920B048091110401C08150282F30E0E2
:100E40009BE0929FF001939FF00D1124ED5AFB4F10
:100E50009081992391F39BE0929FA001939F500D65
:100E60001124DF010180F281E02D0480F581E02D65
:100E70001296FC93EE9311974A5A5B4FE417F507CD
:100E800029F444815581FD01528341839BE0929F67
:100E9000F001939FF00D1124ED5AFB4F0180F28178
:100EA000E02D208531853093800420937F0480934A
:100EB00011040895CF93DF9300D000D0CDB7DEB7F3
:100EC0008C01E8DD69837A838B839C83E2E0F1E027
:100ED00080818860808301C0870144EF51E060E039
:100EE00070E0CE0101963FDFE2E0F1E0908188E022
:100EF0008927808378018FEFE81AF80A03331105F8
:100F000058F3809181049091820442DDE5CFE1E0C5
:100F1000F1E08081886080830F2EF1E8EF2EF4E00D
:100F2000FF2EF02D00E02AE030E045E550E065E0DE
:100F300072E08AE597E0DDDC76DDFFCFF894FFCF45
:0A0F400049444C4500426C75650001
:00000001FF
